:100000000C945C000C946E000C946E000C946E00CA
:100010000C946E000C946E000C946E000C946E00A8
:100020000C946E000C946E000C946E000C946E0098
:100030000C946E000C9414010C946E000C946E00E1
:100040000C94CA000C946E000C946E000C946E001C
:100050000C946E000C946E000C946E000C946E0068
:100060000C946E000C946E00000000080002010069
:100070000003040700000000000000000000000072
:10008000250028002B0000000000240027002A0083
:10009000040404040404040402020202020203032E
:1000A0000303030301020408102040800102040836
:1000B000102001020408102011241FBECFEFD8E049
:1000C000DEBFCDBF21E0A0E0B1E001C01D92A031B4
:1000D000B207E1F70E943B010C94BD010C940000B3
:1000E0002091000130910101E4E7F0E09491E0EB10
:1000F000F0E08491ECE9F0E0E491EE2309F43BC0F8
:10010000992339F1933091F038F49130A9F092307D
:1001100001F594B59F7D12C0973091F09830A1F011
:100120009430B9F4909180009F7D03C0909180003D
:100130009F77909380000DC094B59F7794BD09C0C0
:100140009091B0009F7703C09091B0009F7D9093F5
:10015000B000F0E0EE0FFF1FE458FF4FA591B491FF
:100160009FB7F894EC91211103C080958E2301C0B4
:100170008E2B8C939FBF209100013091010181E073
:1001800090E0232B11F080E090E0909301018093A8
:10019000000108951F920F920FB60F9211242F9312
:1001A0003F938F939F93AF93BF9380910C01909156
:1001B0000D01A0910E01B0910F0130910B0123E0D0
:1001C000230F2D3720F40196A11DB11D05C026E88F
:1001D000230F0296A11DB11D20930B0180930C01EA
:1001E00090930D01A0930E01B0930F018091070130
:1001F00090910801A0910901B0910A010196A11DF9
:10020000B11D8093070190930801A0930901B09359
:100210000A01BF91AF919F918F913F912F910F90C4
:100220000FBE0F901F9018951F920F920FB60F924E
:1002300011242F933F934F935F936F937F938F93EB
:100240009F93AF93BF93EF93FF93E0910201F091DF
:1002500003010995FF91EF91BF91AF919F918F910C
:100260007F916F915F914F913F912F910F900FBEB2
:100270000F901F901895789484B5826084BD84B5E2
:10028000816084BD85B5826085BD85B5816085BD91
:1002900080916E00816080936E0010928100809149
:1002A00081008260809381008091810081608093D1
:1002B0008100809180008160809380008091B100F6
:1002C00084608093B1008091B00081608093B00021
:1002D00080917A00846080937A0080917A008260B5
:1002E00080937A0080917A00816080937A00809177
:1002F0007A00806880937A001092C100E0EBF0E011
:100300002491ECE9F0E08491882399F090E0880F43
:10031000991FFC01EA57FF4FA591B491FC01E458E5
:10032000FF4F859194918FB7F894EC91E22BEC9369
:100330008FBF80E1809381001092800081E08093E4
:10034000060120EA3FE03093050120930401309339
:1003500087002093860091E19093810020E730E0B0
:10036000309303012093020180936F00C0E0D0E03E
:0E0370002097F1F30E940000FBCFF894FFCF1E
:107E0000112484B714BE81FFF0D085E080938100F7
:107E100082E08093C00088E18093C10086E0809377
:107E2000C20080E18093C4008EE0C9D0259A86E02C
:107E300020E33CEF91E0309385002093840096BBD3
:107E4000B09BFECF1D9AA8958150A9F7CC24DD24C4
:107E500088248394B5E0AB2EA1E19A2EF3E0BF2EE7
:107E6000A2D0813461F49FD0082FAFD0023811F036
:107E7000013811F484E001C083E08DD089C08234E0
:107E800011F484E103C0853419F485E0A6D080C0E4
:107E9000853579F488D0E82EFF2485D0082F10E0AE
:107EA000102F00270E291F29000F111F8ED06801E7
:107EB0006FC0863521F484E090D080E0DECF843638
:107EC00009F040C070D06FD0082F6DD080E0C81688
:107ED00080E7D80618F4F601B7BEE895C0E0D1E017
:107EE00062D089930C17E1F7F0E0CF16F0E7DF06D8
:107EF00018F0F601B7BEE89568D007B600FCFDCFD4
:107F0000A601A0E0B1E02C9130E011968C91119780
:107F100090E0982F8827822B932B1296FA010C0160
:107F200087BEE89511244E5F5F4FF1E0A038BF0790
:107F300051F7F601A7BEE89507B600FCFDCF97BE46
:107F4000E89526C08437B1F42ED02DD0F82E2BD052
:107F50003CD0F601EF2C8F010F5F1F4F84911BD097
:107F6000EA94F801C1F70894C11CD11CFA94CF0C13
:107F7000D11C0EC0853739F428D08EE10CD085E9AC
:107F80000AD08FE07ACF813511F488E018D01DD067
:107F900080E101D065CF982F8091C00085FFFCCF94
:107FA0009093C60008958091C00087FFFCCF809118
:107FB000C00084FD01C0A8958091C6000895E0E648
:107FC000F0E098E1908380830895EDDF803219F02E
:107FD00088E0F5DFFFCF84E1DECF1F93182FE3DFCA
:107FE0001150E9F7F2DF1F91089580E0E8DFEE27F6
:047FF000FF270994CA
:027FFE00040479
:0400000300007E007B
:00000001FF
